:100000000C9462000C948A000C948A000C948A0070
:100010000C948A000C948A000C948A000C948A0038
:100020000C948A000C948A000C948A000C94EA02C6
:100030000C948A000C948A000C948A000C948A0018
:100040000C9448020C948A000C94B8020C9492020E
:100050000C948A000C948A000C948A000C948A00F8
:100060000C948A000C948A000000000023002600F3
:10007000290000000000240027002A0000000000E2
:10008000250028002B0004040404040404040202D4
:100090000202020203030303030301020408102007
:1000A0004080010204081020010204081020000012
:1000B0000008000201000003040700000000000027
:1000C0000000E10411241FBECFEFD8E0DEBFCDBF9A
:1000D00011E0A0E0B1E0ECEDFCE002C005900D9273
:1000E000A831B107D9F721E0A8E1B1E001C01D9224
:1000F000A33EB207E1F710E0C2E6D0E004C02197CA
:10010000FE010E946606C136D107C9F70E9493031B
:100110000C946C060C94000090E0FC01E255FF4F3B
:100120002491FC01E656FF4F3491FC01EA57FF4F42
:10013000E491EE23C9F0222339F0233001F1A8F431
:10014000213019F1223029F1F0E0EE0FFF1FE458C1
:10015000FF4FA591B4918FB7F894EC91611126C02F
:1001600030953E233C938FBF08952730A9F0283067
:10017000C9F0243049F7809180008F7D03C08091C1
:1001800080008F7780938000DFCF84B58F7784BD28
:10019000DBCF84B58F7DFBCF8091B0008F778093CC
:1001A000B000D2CF8091B0008F7DF9CF3E2BDACF57
:1001B000CF93DF9390E0FC01E656FF4F24918A57DE
:1001C0009F4FFC0184918823D1F090E0880F991F04
:1001D000FC01EE58FF4FA591B491FC01E458FF4F8C
:1001E000C591D49161110EC09FB7F8948C91E22F04
:1001F000E0958E238C932881E223E8839FBFDF91D3
:10020000CF9108958FB7F894EC91E22BEC938FBFC8
:10021000F6CF3FB7F8948091420190914301A091AD
:100220004401B091450126B5A89B05C02F3F19F0A8
:100230000196A11DB11D3FBFBA2FA92F982F882766
:10024000BC01CD01620F711D811D911D42E0660F41
:10025000771F881F991F4A95D1F70895AF92BF92D3
:10026000CF92DF92EF92FF920F931F93CF93DF9382
:100270006C017B018B01040F151FEB015E01AE18B1
:10028000BF08C017D10759F06991D601ED91FC91D3
:100290000190F081E02DC6010995892B79F7C50100
:1002A000DF91CF911F910F91FF90EF90DF90CF9052
:1002B000BF90AF900895FC01538D448D252F30E001
:1002C000842F90E0821B930B541710F0CF96089563
:1002D00001970895FC01918D828D981761F0A28D90
:1002E000AE0FBF2FB11D5D968C91928D9F5F9F7356
:1002F000928F90E008958FEF9FEF0895FC01918D0C
:10030000828D981731F0828DE80FF11D858D90E078
:1003100008958FEF9FEF0895FC01918D228D892F15
:1003200090E0805C9F4F821B91098F7399270895FD
:1003300086E491E00E948C0121E0892B09F420E001
:10034000822F089580E090E0892B29F00E94980187
:1003500081110C9400000895FC01A48DA80FB92F01
:10036000B11DA35ABF4F2C91848D90E001968F73DD
:100370009927848FA689B7892C93A089B1898C91FC
:10038000837080648C93938D848D981306C002884B
:10039000F389E02D80818F7D80830895EF92FF9215
:1003A0000F931F93CF93DF93EC0181E0888F9B8D98
:1003B0008C8D98131AC0E889F989808185FF15C052
:1003C0009FB7F894EE89FF896083E889F989808175
:1003D0008370806480839FBF81E090E0DF91CF9144
:1003E0001F910F91FF90EF900895F62E0B8D10E066
:1003F0000F5F1F4F0F731127E02E8C8D8E110CC0D5
:100400000FB607FCFACFE889F989808185FFF5CF1F
:10041000CE010E94AC01F1CFEB8DEC0FFD2FF11D51
:10042000E35AFF4FF0829FB7F8940B8FEA89FB895C
:1004300080818062CFCFCF93DF93EC01888D8823BA
:10044000B9F0AA89BB89E889F9898C9185FD03C037
:10045000808186FD0DC00FB607FCF7CF8C9185FF1C
:10046000F2CF808185FFEDCFCE010E94AC01E9CFB4
:10047000DF91CF910895FC0101900020E9F73197B9
:10048000AF01481B590BBC0186E491E00C942E018E
:100490001F920F920FB60F9211242F933F938F93B9
:1004A0009F93AF93BF9380913E0190913F01A091A4
:1004B0004001B091410130913D0123E0230F2D37E0
:1004C00058F50196A11DB11D20933D0180933E0179
:1004D00090933F01A0934001B0934101809142016C
:1004E00090914301A0914401B09145010196A11D55
:1004F000B11D8093420190934301A0934401B093B6
:100500004501BF91AF919F918F913F912F910F9096
:100510000FBE0F901F90189526E8230F0296A11D7D
:10052000B11DD2CF1F920F920FB60F9211242F93AD
:100530003F934F935F936F937F938F939F93AF936B
:10054000BF93EF93FF9386E491E00E94AC01FF918B
:10055000EF91BF91AF919F918F917F916F915F913B
:100560004F913F912F910F900FBE0F901F901895B4
:100570001F920F920FB60F9211242F938F939F9378
:10058000EF93FF93E0915601F09157018081E09144
:100590005C01F0915D0182FD1BC0908180915F0143
:1005A0008F5F8F7320916001821741F0E0915F01AE
:1005B000F0E0EA5BFE4F958F80935F01FF91EF9132
:1005C0009F918F912F910F900FBE0F901F901895B4
:1005D0008081F4CF1F920F920FB60F9211242F93A8
:1005E0003F938F939F93EF93FF9380913C0187FFFD
:1005F0001FC0109285001092840080913C018F5F93
:1006000080933C0180913C0187FF04C080913C01B4
:100610008C30ACF0809184009091850004968034F9
:100620009C4990F1809184009091850004962EC0A1
:1006300080913C0187FFE1CF80913C01DECF20918A
:10064000840030918500E0913C018E2FEE0F990BD4
:10065000FC01EE0FFF1FE80FF91FE85EFE4F8181DE
:100660009281820F931F90938900809388008091DC
:100670003C01FF91EF919F918F913F912F910F90AE
:100680000FBE0F901F90189580E49CE9909389000D
:10069000809388008FEF80933C01EBCFCF92DF9265
:1006A000EF92FF920F931F93E82FF92F05C001508F
:1006B00011092109310961F1908196239417B9F349
:1006C00005C0015011092109310911F190819623CA
:1006D0009413F7CFC12CD12CE12CF12C0AC08FEF51
:1006E000C81AD80AE80AF80A0C151D052E053F0598
:1006F00079F080818623841791F36C2D7D2D8E2DCA
:100700009F2D1F910F91FF90EF90DF90CF90089554
:1007100060E070E080E090E01F910F91FF90EF901B
:10072000DF90CF900895CF93DF93CDB7DEB7A19739
:100730000FB6F894DEBF0FBECDBF789484B582604B
:1007400084BD84B5816084BD85B5826085BD85B575
:10075000816085BD80916E00816080936E001092F3
:10076000810080918100826080938100809181006E
:1007700081608093810080918000816080938000FF
:100780008091B10084608093B1008091B00081605D
:100790008093B00080917A00846080937A00809189
:1007A0007A00826080937A0080917A0081608093E1
:1007B0007A0080917A00806880937A001092C1005C
:1007C000E0915601F091570182E08083E09152015F
:1007D000F09153011082E0915401F09155018FEC9A
:1007E000808310925E01E0915A01F0915B0186E0F6
:1007F0008083E0915801F09159018081806180836C
:10080000E0915801F0915901808188608083E091E6
:100810005801F0915901808180688083E0915801EE
:10082000F091590180818F7D808360E08CE00E948F
:10083000D80061E08DE00E94D8004FE0242E312CDA
:100840005AE0852E912CA12CB12C60E08DE00E9405
:100850008C00C1010197F1F761E08DE00E948C00EE
:1008600083E290E00197F1F760E08DE00E948C0058
:1008700060E08CE00E94D800E6EAF0E06491E2E9F2
:10088000F0E08491E82FF0E0EE0FFF1FE859FF4FF2
:100890008591949100E412E42FE030E0462F0E940D
:1008A0004E03611571058105910529F06F5F7F4F3A
:1008B0008F4F9F4F9F7095958795779567950E946D
:1008C000DA052DEC3CEC48EE51E40E9430050E9424
:1008D000A2056B017C01F7FE5EC06DE286E491E04B
:1008E0000E94CE0122273327A9012C193D094E0968
:1008F0005F0919A2CE0181967C01CA01B901A50147
:1009000094010E940E05605DF70162937F0121153D
:1009100031054105510589F7E114F10419F0C701CA
:100920000E943B0282E191E00E943B0285E191E05E
:100930000E943B020E9409012B013C018AEFC82E54
:10094000D12CE12CF12C0E9409016419750986094A
:100950009709683E734081059105A8F3F1E0CF1A2D
:10096000D108E108F10828EE420E23E0521E611C76
:10097000711CC114D104E104F10429F780E090E076
:10098000892B09F462CF0E949801882309F45DCF76
:100990000E9400005ACFAC019B0119A2CE018196A2
:1009A0007C01CA01B901A50194010E940E05605D98
:1009B000F70162937F01211531054105510589F742
:1009C000ABCFE6E4F1E01382128288EE93E0A0E080
:1009D000B0E084839583A683B78384E091E091831C
:1009E000808385EC90E09587848784EC90E09787FE
:1009F000868780EC90E0918B808B81EC90E0938BEC
:100A0000828B82EC90E0958B848B86EC90E0978BC8
:100A1000868B118E128E138E148E0895A1E21A2EDB
:100A2000AA1BBB1BFD010DC0AA1FBB1FEE1FFF1F92
:100A3000A217B307E407F50720F0A21BB30BE40BE2
:100A4000F50B661F771F881F991F1A9469F7609529
:100A50007095809590959B01AC01BD01CF010895E3
:100A60000E9444050C942C060E94250658F00E9412
:100A70001E0640F029F45F3F29F00C941506511131
:100A80000C9460060C941B060E943D0668F39923A3
:100A9000B1F3552391F3951B550BBB27AA2762177A
:100AA0007307840738F09F5F5F4F220F331F441F87
:100AB000AA1FA9F335D00E2E3AF0E0E832D09150BB
:100AC0005040E695001CCAF72BD0FE2F29D0660FA8
:100AD000771F881FBB1F261737074807AB07B0E8EB
:100AE00009F0BB0B802DBF01FF2793585F4F3AF0F1
:100AF0009E3F510578F00C9415060C9460065F3FFC
:100B0000E4F3983ED4F3869577956795B795F79576
:100B10009F5FC9F7880F911D9695879597F908955E
:100B2000E1E0660F771F881FBB1F621773078407FA
:100B3000BA0720F0621B730B840BBA0BEE1F88F709
:100B4000E09508950E94A9056894B1110C9460067F
:100B500008950E94450688F09F5798F0B92F99276D
:100B6000B751B0F0E1F0660F771F881F991F1AF098
:100B7000BA95C9F714C0B13091F00E945F06B1E098
:100B800008950C945F06672F782F8827B85F39F097
:100B9000B93FCCF3869577956795B395D9F73EF431
:100BA00090958095709561957F4F8F4F9F4F0895D9
:100BB000E89409C097FB3EF49095809570956195F7
:100BC0007F4F8F4F9F4F9923A9F0F92F96E9BB27AD
:100BD0009395F695879577956795B795F111F8CF29
:100BE000FAF4BB0F11F460FF1BC06F5F7F4F8F4F94
:100BF0009F4F16C0882311F096E911C0772321F08A
:100C00009EE8872F762F05C0662371F096E8862F21
:100C100070E060E02AF09A95660F771F881FDAF778
:100C2000880F9695879597F9089597F99F6780E8BB
:100C300070E060E008959FEF80EC089500240A942E
:100C40001616170618060906089500240A941216A7
:100C50001306140605060895092E0394000C11F4DA
:100C6000882352F0BB0F40F4BF2B11F460FF04C087
:100C70006F5F7F4F8F4F9F4F089557FD9058440FE0
:100C8000551F59F05F3F71F04795880F97FB991FEB
:100C900061F09F3F79F087950895121613061406A8
:100CA000551FF2CF4695F1DF08C016161706180635
:100CB000991FF1CF86957105610508940895E89410
:100CC000BB2766277727CB0197F90895EE0FFF1F03
:0C0CD0000590F491E02D0994F894FFCFFA
:100CDC0000000000CE012E015B011B028C016A0199
:080CEC007E01636D000D0A009A
:00000001FF
