:020000040000FA
:100000000C9462000C948A000C948A000C948A0070
:100010000C948A000C948A000C948A000C948A0038
:100020000C948A000C948A000C948A000C940704A7
:100030000C948A000C948A000C948A000C948A0018
:100040000C9465030C948A000C94D5030C94AF03B4
:100050000C948A000C948A000C948A000C948A00F8
:100060000C948A000C948A000000000023002600F3
:10007000290000000000240027002A0000000000E2
:10008000250028002B0004040404040404040202D4
:100090000202020203030303030301020408102007
:1000A0004080010204081020010204081020000012
:1000B0000008000201000003040700000000000027
:1000C0000000080511241FBECFEFD8E0DEBFCDBF72
:1000D00011E0A0E0B1E0E8E1F3E102C005900D928B
:1000E000A233B107D9F722E0A2E3B1E001C01D922B
:1000F000A431B207E1F710E0C2E6D0E004C02197D6
:10010000FE010E948409C136D107C9F70E947F050C
:100110000C948A090C94000090E0FC01E255FF4F1A
:100120002491FC01E656FF4F3491FC01EA57FF4F42
:10013000E491EE23C9F0222339F0233001F1A8F431
:10014000213019F1223029F1F0E0EE0FFF1FE458C1
:10015000FF4FA591B4918FB7F894EC91611126C02F
:1001600030953E233C938FBF08952730A9F0283067
:10017000C9F0243049F7809180008F7D03C08091C1
:1001800080008F7780938000DFCF84B58F7784BD28
:10019000DBCF84B58F7DFBCF8091B0008F778093CC
:1001A000B000D2CF8091B0008F7DF9CF3E2BDACF57
:1001B000CF93DF9390E0FC01E656FF4F24918A57DE
:1001C0009F4FFC0184918823D1F090E0880F991F04
:1001D000FC01EE58FF4FA591B491FC01E458FF4F8C
:1001E000C591D49161110EC09FB7F8948C91E22F04
:1001F000E0958E238C932881E223E8839FBFDF91D3
:10020000CF9108958FB7F894EC91E22BEC938FBFC8
:10021000F6CF8E50806480937C0080917A00806459
:1002200080937A0080917A0086FDFCCF80917800DF
:100230009091790008953FB7F8948091480190918A
:100240004901A0914A01B0914B0126B5A89B05C078
:100250002F3F19F00196A11DB11D3FBFBA2FA92F45
:10026000982F8827BC01CD01620F711D811D911D42
:1002700042E0660F771F881F991F4A95D1F70895AE
:10028000AF92BF92CF92DF92EF92FF920F931F93A4
:10029000CF93DF936C017B018B01040F151FEB01E2
:1002A0005E01AE18BF08C017D10759F06991D60199
:1002B000ED91FC910190F081E02DC6010995892B0B
:1002C00079F7C501DF91CF911F910F91FF90EF90CA
:1002D000DF90CF90BF90AF900895FC01538D448D77
:1002E000252F30E0842F90E0821B930B541710F0E1
:1002F000CF96089501970895FC01918D828D9817EE
:1003000061F0A28DAE0FBF2FB11D5D968C91928DC5
:100310009F5F9F73928F90E008958FEF9FEF0895F6
:10032000FC01918D828D981731F0828DE80FF11DBF
:10033000858D90E008958FEF9FEF0895FC01918DDA
:10034000228D892F90E0805C9F4F821B91098F73D3
:10035000992708958CE491E00E949E0121E0892B69
:1003600009F420E0822F089580E090E0892B29F0A5
:100370000E94AA0181110C9400000895FC01A48D33
:10038000A80FB92FB11DA35ABF4F2C91848D90E0B7
:1003900001968F739927848FA689B7892C93A0899A
:1003A000B1898C91837080648C93938D848D981324
:1003B00006C00288F389E02D80818F7D80830895B7
:1003C000EF92FF920F931F93CF93DF93EC0181E0A5
:1003D000888F9B8D8C8D98131AC0E889F98980814C
:1003E00085FF15C09FB7F894EE89FF896083E8897F
:1003F000F98980818370806480839FBF81E090E071
:10040000DF91CF911F910F91FF90EF900895F62EFD
:100410000B8D10E00F5F1F4F0F731127E02E8C8D97
:100420008E110CC00FB607FCFACFE889F9898081DC
:1004300085FFF5CFCE010E94BE01F1CFEB8DEC0F11
:10044000FD2FF11DE35AFF4FF0829FB7F8940B8FF9
:10045000EA89FB8980818062CFCFCF93DF93EC0163
:10046000888D8823B9F0AA89BB89E889F9898C919C
:1004700085FD03C0808186FD0DC00FB607FCF7CF58
:100480008C9185FFF2CF808185FFEDCFCE010E9458
:10049000BE01E9CFDF91CF910895CF92DF92EF9225
:1004A000FF92CF93DF93EC01603282E07807CCF5C6
:1004B000653B710514F064EB70E0898128E830E059
:1004C000281B310987FD3395220F331F220F331F5D
:1004D0006901330FEE08FF088A8128E532E0281B06
:1004E000310987FD3395220F331F220F331F032E4F
:1004F000000C440B550B2C193D094E095F09DB011B
:1005000077FF02C0B0E0A0E00E94090824EB30E0D1
:1005100040E050E00E94DF07C20ED31EE41EF51E2D
:10052000B601E881EC3070F5298188E890E0821B03
:10053000910927FD9395880F991F880F991F6817B8
:1005400079077CF02A8188E592E0821B910927FDDA
:100550009395880F991F880F991F681779070CF4D6
:10056000CB010297880F991F4FB7F8942E2F30E0D8
:10057000F901EE0FFF1FE20FF31FE751FE4F9283C9
:1005800081834FBFDF91CF91FF90EF90DF90CF90AD
:100590000895892B79F41092800082E08093810085
:1005A0001092850010928400B19A80916F00826051
:1005B00080936F000895FC0101900020E9F73197C6
:1005C000AF01481B590BBC018CE491E00C94400135
:1005D0008F929F92AF92BF920F931F93CF93DF930F
:1005E000CDB7DEB7A1970FB6F894DEBF0FBECDBF73
:1005F00019A2423008F44AE08E010F5D1F4F842E8D
:10060000912CB12CA12CA50194010E941108E62F78
:10061000B901CA01EA30F4F4E05DD801EE938D012E
:10062000232B242B252B79F790E080E0109719F0ED
:10063000CD010E94DB02A1960FB6F894DEBF0FBE7B
:10064000CDBFDF91CF911F910F91BF90AF909F9041
:100650008F900895E95CE1CFCF92DF92EF92FF9205
:10066000CF93DF936B017C016DE28CE491E00E94FB
:10067000E001EC0166277727CB016C197D098E0913
:100680009F094AE00E94E8028C0F9D1FDF91CF91E5
:10069000FF90EF90DF90CF900895CF93DF93BC0150
:1006A000990F880B990B97FF0CC00E942C03EC014B
:1006B00082E191E00E94DB028C0F9D1FDF91CF91C0
:1006C00008954AE00E94E802F2CF1F920F920FB6FF
:1006D0000F9211242F933F938F939F93AF93BF93C8
:1006E0008091440190914501A0914601B09147014C
:1006F0003091430123E0230F2D3758F50196A11DBA
:10070000B11D209343018093440190934501A09330
:100710004601B09347018091480190914901A09111
:100720004A01B0914B010196A11DB11D8093480172
:1007300090934901A0934A01B0934B01BF91AF91AF
:100740009F918F913F912F910F900FBE0F901F900F
:10075000189526E8230F0296A11DB11DD2CF1F9236
:100760000F920FB60F9211242F933F934F935F93E5
:100770006F937F938F939F93AF93BF93EF93FF9369
:100780008CE491E00E94BE01FF91EF91BF91AF9187
:100790009F918F917F916F915F914F913F912F9199
:1007A0000F900FBE0F901F9018951F920F920FB6CB
:1007B0000F9211242F938F939F93EF93FF93E091C8
:1007C0005C01F0915D018081E0916201F091630133
:1007D00082FD1BC09081809165018F5F8F73209196
:1007E0006601821741F0E0916501F0E0E45BFE4FA5
:1007F000958F80936501FF91EF919F918F912F913C
:100800000F900FBE0F901F9018958081F4CF1F920C
:100810000F920FB60F9211242F933F934F935F9334
:100820006F937F938F939F93AF93BF93CF93DF93F8
:10083000EF93FF9380913201C0910D02D0E087FFCA
:1008400024C01092850010928400809132018F5F45
:100850008093320180913201082E000C990B8C1785
:100860009D0724F4809132018C30C4F18091840082
:1008700090918500049680349C4908F47AC0809158
:10088000840090918500049676C080913201082EF4
:10089000000C990B8C179D07C4F6E09132018E2F46
:1008A000EE0F990BFC01EE0FFF1FE80FF91FE75148
:1008B000FE4F808186FFC9CFE09132018E2FEE0F6F
:1008C000990BFC01EE0FFF1FE80FF91FE751FE4FD8
:1008D000808160E08F730E948C00B7CF20918400EC
:1008E00030918500E09132018E2FEE0F990BFC01C3
:1008F000EE0FFF1FE80FF91FE751FE4F8181928134
:10090000820F931F9093890080938800E0913201B9
:100910008E2FEE0F990BFC01EE0FFF1FE80FF91F52
:10092000E751FE4F808186FF11C0E09132018E2F8A
:10093000EE0F990BFC01EE0FFF1FE80FF91FE751B7
:10094000FE4F808161E08F730E948C00FF91EF91D8
:10095000DF91CF91BF91AF919F918F917F916F91D7
:100960005F914F913F912F910F900FBE0F901F906D
:10097000189580E49CE990938900809388008FEF1C
:1009800080933201E3CFCF92DF92EF92FF920F93E9
:100990001F93E82FF92F05C00150110921093109D2
:1009A00061F1908196239417B9F305C001501109A4
:1009B0002109310911F1908196239413F7CFC12CAD
:1009C000D12CE12CF12C0AC08FEFC81AD80AE80A02
:1009D000F80A0C151D052E053F0579F08081862348
:1009E000841791F36C2D7D2D8E2D9F2D1F910F91CE
:1009F000FF90EF90DF90CF90089560E070E080E08E
:100A000090E01F910F91FF90EF90DF90CF900895AD
:100A100010924F0110924E0188EE93E0A0E0B0E0FA
:100A20008093500190935101A0935201B0935301D0
:100A300084E091E090934D0180934C0185EC90E02F
:100A4000909359018093580184EC90E090935B015E
:100A500080935A0180EC90E090935D0180935C015B
:100A600081EC90E090935F0180935E0182EC90E0D6
:100A7000909361018093600186EC90E09093630114
:100A800080936201109265011092660110926701D5
:100A90001092680180910D028C3048F591E0980F1A
:100AA00090930D028093110290E0FC01EE0FFF1F66
:100AB000E80FF91FE751FE4F88EB9BE0928381839B
:100AC00080910D028C30B8F491E0980F90930D0254
:100AD00080930E0290E0FC01EE0FFF1FE80FF91F5C
:100AE000E751FE4F88EB9BE09283818308958FEF5F
:100AF00080931102E5CF8FEF80930E0208957894D2
:100B000084B5826084BD84B5816084BD85B5826012
:100B100085BD85B5816085BD80916E0081608093C3
:100B20006E0010928100809181008260809381002C
:100B3000809181008160809381008091800081603C
:100B4000809380008091B10084608093B100809197
:100B5000B00081608093B00080917A0084608093BF
:100B60007A0080917A00826080937A0080917A0086
:100B7000816080937A0080917A00806880937A0007
:100B80001092C100E0915C01F0915D0182E08083F0
:100B9000E0915801F09159011082E0915A01F091D1
:100BA0005B018FEC808310926401E0916001F09111
:100BB000610186E08083E0915E01F0915F018081B8
:100BC00080618083E0915E01F0915F0180818860A7
:100BD0008083E0915E01F0915F0180818068808375
:100BE000E0915E01F0915F0180818F7D8083809133
:100BF00011028C3008F043C061E08AE00E94D80006
:100C000080911102282F30E0F901EE0FFF1FE20F53
:100C1000F31FE751FE4F9081907C9A609083109271
:100C20001202109213022CE0622F0E94780990E0C9
:100C3000829FB001112430E020E0AB01420F531F2E
:100C4000FA01EE0FFF1FE40FF51FE751FE4F408141
:100C500046FD07C02F5F3F4F2C30310571F70E94D2
:100C6000C902E09111028E2F90E0FC01EE0FFF1FF0
:100C7000E80FF91FE751FE4F8081806480838091E7
:100C80000E028C3008F043C061E08BE00E94D80077
:100C900080910E02282F30E0F901EE0FFF1FE20FC6
:100CA000F31FE751FE4F9081907C9B6090831092E0
:100CB0000F02109210022CE0622F0E94780990E03F
:100CC000829FB001112430E020E0AB01420F531F9E
:100CD000FA01EE0FFF1FE40FF51FE751FE4F4081B1
:100CE00046FD07C02F5F3F4F2C30310571F70E9442
:100CF000C902E0910E028E2F90E0FC01EE0FFF1F63
:100D0000E80FF91FE751FE4F80818064808360E027
:100D10008CE00E94D80061E08DE00E94D80070E075
:100D200060E081E192E00E944D0270E060E08EE0C0
:100D300092E00E944D024FE0242E312CC3E2D0E01D
:100D400050E0A52E50E0B52E64EB862E912C60E08D
:100D50008DE00E948C00C1010197F1F761E08DE008
:100D60000E948C00CE010197F1F760E08DE00E94B7
:100D70008C0060E08CE00E94D800E6EAF0E064912C
:100D8000E2E9F0E08491E82FF0E0EE0FFF1FE85970
:100D9000FF4F8591949100E412E42FE030E0462F5C
:100DA0000E94C304611571058105910529F06F5FEB
:100DB0007F4F8F4F9F4F9F7095958795779567953C
:100DC0000E94EC082DEC3CEC48EE51E40E944208F5
:100DD0000E94B40860933F017093400180934101E9
:100DE0009093420197FF77C00E942C0385E191E028
:100DF0000E94DB0282E191E00E94DB028EE00E9411
:100E0000090190933E0180933D018FE00E9409010A
:100E100090933C0180933B0180E10E9409019093F3
:100E20003A018093390181E10E94090190933801D0
:100E30008093370188E191E00E94DB0280913D01BF
:100E400090913E010E944D038EE191E00E94DB02F1
:100E500080913B0190913C010E944D0385E291E01D
:100E60000E94DB028091390190913A010E944D036A
:100E70008AE291E00E94DB02809137019091380173
:100E80000E944D0380913F0190914001A09141014A
:100E9000B091420185359140A105B1050CF44AC0DD
:100EA00040913B0150913C0120913D0130913E0128
:100EB0008091350190913601BA016C5E7F4F6217C7
:100EC00073070CF067C0019797FD09C09093360136
:100ED0008093350108C04AE00E94E80287CF109253
:100EE000360110923501609135017091360181E132
:100EF00092E00E944D028091370190913801449612
:100F00002091390130913A01821793075CF4809166
:100F1000330190913401019797FD4CC090933401B7
:100F20008093330160913301709134018EE092E03F
:100F30000E944D020E941B012B013C018AEFC82E2A
:100F4000D12CE12CF12C0E941B0164197509860932
:100F50009709683E734081059105A8F321E0C21A04
:100F6000D108E108F10888EE480E83E0581E611CA4
:100F7000711CC114D104E104F10429F7A114B104D6
:100F800009F4E5CE0E94AA01882309F4E0CE0E946C
:100F90000000DDCE2C5E3F4F241735070CF0A3CFA9
:100FA0000196853B91050CF491CF90923601809289
:100FB000350199CF1092340110923301B3CF052E31
:100FC00097FB1EF400940E94F60757FD07D00E947D
:100FD000110807FC03D04EF40C94F6075095409589
:100FE000309521953F4F4F4F5F4F089590958095D5
:100FF000709561957F4F8F4F9F4F08950E943308E2
:10100000A59F900DB49F900DA49F800D911D11245C
:101010000895B7FF0C94FE070E94FE07821B930BF6
:101020000895A1E21A2EAA1BBB1BFD010DC0AA1F29
:10103000BB1FEE1FFF1FA217B307E407F50720F041
:10104000A21BB30BE40BF50B661F771F881F991FBC
:101050001A9469F760957095809590959B01AC0105
:10106000BD01CF010895A29FB001B39FC001A39F0E
:10107000700D811D1124911DB29F700D811D1124D1
:10108000911D08950E9456080C943E090E9437094C
:1010900058F00E94300940F029F45F3F29F00C9489
:1010A000270951110C9472090C942D090E944F09C3
:1010B00068F39923B1F3552391F3951B550BBB2787
:1010C000AA2762177307840738F09F5F5F4F220FCC
:1010D000331F441FAA1FA9F335D00E2E3AF0E0E8C3
:1010E00032D091505040E695001CCAF72BD0FE2F0D
:1010F00029D0660F771F881FBB1F261737074807A1
:10110000AB07B0E809F0BB0B802DBF01FF27935858
:101110005F4F3AF09E3F510578F00C9427090C94EC
:1011200072095F3FE4F3983ED4F38695779567950F
:10113000B795F7959F5FC9F7880F911D969587958D
:1011400097F90895E1E0660F771F881FBB1F6217AC
:1011500073078407BA0720F0621B730B840BBA0B6A
:10116000EE1F88F7E09508950E94BB086894B111BE
:101170000C94720908950E94570988F09F5798F0BF
:10118000B92F9927B751B0F0E1F0660F771F881F8C
:10119000991F1AF0BA95C9F714C0B13091F00E94A6
:1011A0007109B1E008950C947109672F782F882791
:1011B000B85F39F0B93FCCF3869577956795B395CD
:1011C000D9F73EF490958095709561957F4F8F4F3C
:1011D0009F4F0895E89409C097FB3EF49095809541
:1011E000709561957F4F8F4F9F4F9923A9F0F92FED
:1011F00096E9BB279395F695879577956795B7956B
:10120000F111F8CFFAF4BB0F11F460FF1BC06F5F50
:101210007F4F8F4F9F4F16C0882311F096E911C062
:10122000772321F09EE8872F762F05C0662371F083
:1012300096E8862F70E060E02AF09A95660F771F97
:10124000881FDAF7880F9695879597F9089597F98B
:101250009F6780E870E060E008959FEF80EC08955C
:1012600000240A9416161706180609060895002485
:101270000A9412161306140605060895092E0394FF
:10128000000C11F4882352F0BB0F40F4BF2B11F473
:1012900060FF04C06F5F7F4F8F4F9F4F089557FDD2
:1012A0009058440F551F59F05F3F71F04795880FD4
:1012B00097FB991F61F09F3F79F08795089512166B
:1012C00013061406551FF2CF4695F1DF08C0161617
:1012D00017061806991FF1CF8695710561050894C8
:1012E0000895E894BB2766277727CB0197F90895DF
:1012F000991B79E004C0991F961708F0961B881F68
:101300007A95C9F780950895EE0FFF1F0590F49127
:10131000E02D0994F894FFCF00000000E0014001A7
:101320006D012D029E017C0190010D0A00636D008C
:101330004C6566743A0052696768743A00546F707D
:0A1340003A00426F74746F6D3A00BA
:107E0000112484B714BE81FFF0D085E080938100F7
:107E100082E08093C00088E18093C10086E0809377
:107E2000C20080E18093C4008EE0C9D0259A86E02C
:107E300020E33CEF91E0309385002093840096BBD3
:107E4000B09BFECF1D9AA8958150A9F7CC24DD24C4
:107E500088248394B5E0AB2EA1E19A2EF3E0BF2EE7
:107E6000A2D0813461F49FD0082FAFD0023811F036
:107E7000013811F484E001C083E08DD089C08234E0
:107E800011F484E103C0853419F485E0A6D080C0E4
:107E9000853579F488D0E82EFF2485D0082F10E0AE
:107EA000102F00270E291F29000F111F8ED06801E7
:107EB0006FC0863521F484E090D080E0DECF843638
:107EC00009F040C070D06FD0082F6DD080E0C81688
:107ED00080E7D80618F4F601B7BEE895C0E0D1E017
:107EE00062D089930C17E1F7F0E0CF16F0E7DF06D8
:107EF00018F0F601B7BEE89568D007B600FCFDCFD4
:107F0000A601A0E0B1E02C9130E011968C91119780
:107F100090E0982F8827822B932B1296FA010C0160
:107F200087BEE89511244E5F5F4FF1E0A038BF0790
:107F300051F7F601A7BEE89507B600FCFDCF97BE46
:107F4000E89526C08437B1F42ED02DD0F82E2BD052
:107F50003CD0F601EF2C8F010F5F1F4F84911BD097
:107F6000EA94F801C1F70894C11CD11CFA94CF0C13
:107F7000D11C0EC0853739F428D08EE10CD085E9AC
:107F80000AD08FE07ACF813511F488E018D01DD067
:107F900080E101D065CF982F8091C00085FFFCCF94
:107FA0009093C60008958091C00087FFFCCF809118
:107FB000C00084FD01C0A8958091C6000895E0E648
:107FC000F0E098E1908380830895EDDF803219F02E
:107FD00088E0F5DFFFCF84E1DECF1F93182FE3DFCA
:107FE0001150E9F7F2DF1F91089580E0E8DFEE27F6
:047FF000FF270994CA
:027FFE00040479
:00000001FF
